{
  "_format": "hh-sol-artifact-1",
  "contractName": "TheZeroClub",
  "sourceName": "contracts/TheZeroClub.sol",
  "abi": [
    {
      "inputs": [],
      "stateMutability": "nonpayable",
      "type": "constructor"
    },
    {
      "anonymous": false,
      "inputs": [
        {
          "indexed": true,
          "internalType": "address",
          "name": "owner",
          "type": "address"
        },
        {
          "indexed": true,
          "internalType": "address",
          "name": "approved",
          "type": "address"
        },
        {
          "indexed": true,
          "internalType": "uint256",
          "name": "tokenId",
          "type": "uint256"
        }
      ],
      "name": "Approval",
      "type": "event"
    },
    {
      "anonymous": false,
      "inputs": [
        {
          "indexed": true,
          "internalType": "address",
          "name": "owner",
          "type": "address"
        },
        {
          "indexed": true,
          "internalType": "address",
          "name": "operator",
          "type": "address"
        },
        {
          "indexed": false,
          "internalType": "bool",
          "name": "approved",
          "type": "bool"
        }
      ],
      "name": "ApprovalForAll",
      "type": "event"
    },
    {
      "anonymous": false,
      "inputs": [
        {
          "indexed": true,
          "internalType": "address",
          "name": "previousOwner",
          "type": "address"
        },
        {
          "indexed": true,
          "internalType": "address",
          "name": "newOwner",
          "type": "address"
        }
      ],
      "name": "OwnershipTransferred",
      "type": "event"
    },
    {
      "anonymous": false,
      "inputs": [
        {
          "indexed": true,
          "internalType": "address",
          "name": "from",
          "type": "address"
        },
        {
          "indexed": true,
          "internalType": "address",
          "name": "to",
          "type": "address"
        },
        {
          "indexed": true,
          "internalType": "uint256",
          "name": "tokenId",
          "type": "uint256"
        }
      ],
      "name": "Transfer",
      "type": "event"
    },
    {
      "inputs": [
        {
          "internalType": "address",
          "name": "to",
          "type": "address"
        },
        {
          "internalType": "uint256",
          "name": "tokenId",
          "type": "uint256"
        }
      ],
      "name": "approve",
      "outputs": [],
      "stateMutability": "nonpayable",
      "type": "function"
    },
    {
      "inputs": [
        {
          "internalType": "address",
          "name": "owner",
          "type": "address"
        }
      ],
      "name": "balanceOf",
      "outputs": [
        {
          "internalType": "uint256",
          "name": "",
          "type": "uint256"
        }
      ],
      "stateMutability": "view",
      "type": "function"
    },
    {
      "inputs": [],
      "name": "baseExtension",
      "outputs": [
        {
          "internalType": "string",
          "name": "",
          "type": "string"
        }
      ],
      "stateMutability": "view",
      "type": "function"
    },
    {
      "inputs": [],
      "name": "baseURI",
      "outputs": [
        {
          "internalType": "string",
          "name": "",
          "type": "string"
        }
      ],
      "stateMutability": "view",
      "type": "function"
    },
    {
      "inputs": [],
      "name": "blind",
      "outputs": [
        {
          "internalType": "bool",
          "name": "",
          "type": "bool"
        }
      ],
      "stateMutability": "view",
      "type": "function"
    },
    {
      "inputs": [],
      "name": "blindURI",
      "outputs": [
        {
          "internalType": "string",
          "name": "",
          "type": "string"
        }
      ],
      "stateMutability": "view",
      "type": "function"
    },
    {
      "inputs": [
        {
          "internalType": "uint256",
          "name": "tokenId",
          "type": "uint256"
        }
      ],
      "name": "burn",
      "outputs": [],
      "stateMutability": "nonpayable",
      "type": "function"
    },
    {
      "inputs": [
        {
          "internalType": "uint256",
          "name": "tokenId",
          "type": "uint256"
        }
      ],
      "name": "getApproved",
      "outputs": [
        {
          "internalType": "address",
          "name": "",
          "type": "address"
        }
      ],
      "stateMutability": "view",
      "type": "function"
    },
    {
      "inputs": [
        {
          "internalType": "address",
          "name": "owner",
          "type": "address"
        },
        {
          "internalType": "address",
          "name": "operator",
          "type": "address"
        }
      ],
      "name": "isApprovedForAll",
      "outputs": [
        {
          "internalType": "bool",
          "name": "",
          "type": "bool"
        }
      ],
      "stateMutability": "view",
      "type": "function"
    },
    {
      "inputs": [],
      "name": "maxMintPerWallet",
      "outputs": [
        {
          "internalType": "uint256",
          "name": "",
          "type": "uint256"
        }
      ],
      "stateMutability": "view",
      "type": "function"
    },
    {
      "inputs": [],
      "name": "maxSupply",
      "outputs": [
        {
          "internalType": "uint256",
          "name": "",
          "type": "uint256"
        }
      ],
      "stateMutability": "view",
      "type": "function"
    },
    {
      "inputs": [
        {
          "internalType": "address",
          "name": "_to",
          "type": "address"
        },
        {
          "internalType": "uint256",
          "name": "_mintAmount",
          "type": "uint256"
        }
      ],
      "name": "mint",
      "outputs": [],
      "stateMutability": "payable",
      "type": "function"
    },
    {
      "inputs": [],
      "name": "name",
      "outputs": [
        {
          "internalType": "string",
          "name": "",
          "type": "string"
        }
      ],
      "stateMutability": "view",
      "type": "function"
    },
    {
      "inputs": [],
      "name": "nextTokenId",
      "outputs": [
        {
          "internalType": "uint256",
          "name": "",
          "type": "uint256"
        }
      ],
      "stateMutability": "view",
      "type": "function"
    },
    {
      "inputs": [],
      "name": "owner",
      "outputs": [
        {
          "internalType": "address",
          "name": "",
          "type": "address"
        }
      ],
      "stateMutability": "view",
      "type": "function"
    },
    {
      "inputs": [
        {
          "internalType": "uint256",
          "name": "tokenId",
          "type": "uint256"
        }
      ],
      "name": "ownerOf",
      "outputs": [
        {
          "internalType": "address",
          "name": "",
          "type": "address"
        }
      ],
      "stateMutability": "view",
      "type": "function"
    },
    {
      "inputs": [],
      "name": "price",
      "outputs": [
        {
          "internalType": "uint256",
          "name": "",
          "type": "uint256"
        }
      ],
      "stateMutability": "view",
      "type": "function"
    },
    {
      "inputs": [],
      "name": "renounceOwnership",
      "outputs": [],
      "stateMutability": "nonpayable",
      "type": "function"
    },
    {
      "inputs": [
        {
          "internalType": "address",
          "name": "from",
          "type": "address"
        },
        {
          "internalType": "address",
          "name": "to",
          "type": "address"
        },
        {
          "internalType": "uint256",
          "name": "tokenId",
          "type": "uint256"
        }
      ],
      "name": "safeTransferFrom",
      "outputs": [],
      "stateMutability": "nonpayable",
      "type": "function"
    },
    {
      "inputs": [
        {
          "internalType": "address",
          "name": "from",
          "type": "address"
        },
        {
          "internalType": "address",
          "name": "to",
          "type": "address"
        },
        {
          "internalType": "uint256",
          "name": "tokenId",
          "type": "uint256"
        },
        {
          "internalType": "bytes",
          "name": "data",
          "type": "bytes"
        }
      ],
      "name": "safeTransferFrom",
      "outputs": [],
      "stateMutability": "nonpayable",
      "type": "function"
    },
    {
      "inputs": [
        {
          "internalType": "address",
          "name": "operator",
          "type": "address"
        },
        {
          "internalType": "bool",
          "name": "approved",
          "type": "bool"
        }
      ],
      "name": "setApprovalForAll",
      "outputs": [],
      "stateMutability": "nonpayable",
      "type": "function"
    },
    {
      "inputs": [
        {
          "internalType": "string",
          "name": "_newBaseURI",
          "type": "string"
        }
      ],
      "name": "setBaseURI",
      "outputs": [],
      "stateMutability": "nonpayable",
      "type": "function"
    },
    {
      "inputs": [
        {
          "internalType": "bool",
          "name": "_state",
          "type": "bool"
        }
      ],
      "name": "setBlind",
      "outputs": [],
      "stateMutability": "nonpayable",
      "type": "function"
    },
    {
      "inputs": [
        {
          "internalType": "string",
          "name": "_newblindURI",
          "type": "string"
        }
      ],
      "name": "setBlindURI",
      "outputs": [],
      "stateMutability": "nonpayable",
      "type": "function"
    },
    {
      "inputs": [
        {
          "internalType": "bytes4",
          "name": "interfaceId",
          "type": "bytes4"
        }
      ],
      "name": "supportsInterface",
      "outputs": [
        {
          "internalType": "bool",
          "name": "",
          "type": "bool"
        }
      ],
      "stateMutability": "view",
      "type": "function"
    },
    {
      "inputs": [],
      "name": "symbol",
      "outputs": [
        {
          "internalType": "string",
          "name": "",
          "type": "string"
        }
      ],
      "stateMutability": "view",
      "type": "function"
    },
    {
      "inputs": [
        {
          "internalType": "uint256",
          "name": "tokenId",
          "type": "uint256"
        }
      ],
      "name": "tokenURI",
      "outputs": [
        {
          "internalType": "string",
          "name": "",
          "type": "string"
        }
      ],
      "stateMutability": "view",
      "type": "function"
    },
    {
      "inputs": [
        {
          "internalType": "address",
          "name": "from",
          "type": "address"
        },
        {
          "internalType": "address",
          "name": "to",
          "type": "address"
        },
        {
          "internalType": "uint256",
          "name": "tokenId",
          "type": "uint256"
        }
      ],
      "name": "transferFrom",
      "outputs": [],
      "stateMutability": "nonpayable",
      "type": "function"
    },
    {
      "inputs": [
        {
          "internalType": "address",
          "name": "newOwner",
          "type": "address"
        }
      ],
      "name": "transferOwnership",
      "outputs": [],
      "stateMutability": "nonpayable",
      "type": "function"
    },
    {
      "inputs": [],
      "name": "withdraw",
      "outputs": [],
      "stateMutability": "payable",
      "type": "function"
    }
  ],
  "bytecode": "0x60806040526001600760146101000a81548160ff02191690831515021790555060405180606001604052806035815260200162003f026035913960089080519060200190620000509291906200028d565b5060405180606001604052806036815260200162003f376036913960099080519060200190620000829291906200028d565b506040518060400160405280600581526020017f2e6a736f6e000000000000000000000000000000000000000000000000000000815250600a9080519060200190620000d09291906200028d565b506000600b55666a94d74f430000600c55600b600d556003600e55348015620000f857600080fd5b506040518060400160405280600b81526020017f5468655a65726f436c75620000000000000000000000000000000000000000008152506040518060400160405280600381526020017f545a43000000000000000000000000000000000000000000000000000000000081525081600090805190602001906200017d9291906200028d565b508060019080519060200190620001969291906200028d565b505050620001b9620001ad620001bf60201b60201c565b620001c760201b60201c565b620003a2565b600033905090565b6000600760009054906101000a900473ffffffffffffffffffffffffffffffffffffffff16905081600760006101000a81548173ffffffffffffffffffffffffffffffffffffffff021916908373ffffffffffffffffffffffffffffffffffffffff1602179055508173ffffffffffffffffffffffffffffffffffffffff168173ffffffffffffffffffffffffffffffffffffffff167f8be0079c531659141344cd1fd0a4f28419497f9722a3daafe3b4186f6b6457e060405160405180910390a35050565b8280546200029b906200036c565b90600052602060002090601f016020900481019282620002bf57600085556200030b565b82601f10620002da57805160ff19168380011785556200030b565b828001600101855582156200030b579182015b828111156200030a578251825591602001919060010190620002ed565b5b5090506200031a91906200031e565b5090565b5b80821115620003395760008160009055506001016200031f565b5090565b7f4e487b7100000000000000000000000000000000000000000000000000000000600052602260045260246000fd5b600060028204905060018216806200038557607f821691505b602082108114156200039c576200039b6200033d565b5b50919050565b613b5080620003b26000396000f3fe6080604052600436106101cd5760003560e01c806375794a3c116100f7578063b88d4fde11610095578063d5abeb0111610064578063d5abeb0114610634578063e985e9c51461065f578063eff955371461069c578063f2fde38b146106c7576101cd565b8063b88d4fde1461057a578063ba0a0643146105a3578063c6682862146105cc578063c87b56dd146105f7576101cd565b8063a035b1fe116100d1578063a035b1fe146104d0578063a22cb465146104fb578063ac46291f14610524578063b228d9251461054f576101cd565b806375794a3c1461044f5780638da5cb5b1461047a57806395d89b41146104a5576101cd565b806340c10f191161016f5780636352211e1161013e5780636352211e146103935780636c0360eb146103d057806370a08231146103fb578063715018a614610438576101cd565b806340c10f19146102fc57806342842e0e1461031857806342966c681461034157806355f804b31461036a576101cd565b8063095ea7b3116101ab578063095ea7b31461027757806323b872dd146102a05780632672489a146102c95780633ccfd60b146102f2576101cd565b806301ffc9a7146101d257806306fdde031461020f578063081812fc1461023a575b600080fd5b3480156101de57600080fd5b506101f960048036038101906101f49190612782565b6106f0565b60405161020691906127ca565b60405180910390f35b34801561021b57600080fd5b506102246107d2565b604051610231919061287e565b60405180910390f35b34801561024657600080fd5b50610261600480360381019061025c91906128d6565b610864565b60405161026e9190612944565b60405180910390f35b34801561028357600080fd5b5061029e6004803603810190610299919061298b565b6108aa565b005b3480156102ac57600080fd5b506102c760048036038101906102c291906129cb565b6109c2565b005b3480156102d557600080fd5b506102f060048036038101906102eb9190612a4a565b610a22565b005b6102fa610a80565b005b6103166004803603810190610311919061298b565b610b08565b005b34801561032457600080fd5b5061033f600480360381019061033a91906129cb565b610cf3565b005b34801561034d57600080fd5b50610368600480360381019061036391906128d6565b610d13565b005b34801561037657600080fd5b50610391600480360381019061038c9190612bac565b610d6f565b005b34801561039f57600080fd5b506103ba60048036038101906103b591906128d6565b610d91565b6040516103c79190612944565b60405180910390f35b3480156103dc57600080fd5b506103e5610e18565b6040516103f2919061287e565b60405180910390f35b34801561040757600080fd5b50610422600480360381019061041d9190612bf5565b610ea6565b60405161042f9190612c31565b60405180910390f35b34801561044457600080fd5b5061044d610f5e565b005b34801561045b57600080fd5b50610464610f72565b6040516104719190612c31565b60405180910390f35b34801561048657600080fd5b5061048f610f78565b60405161049c9190612944565b60405180910390f35b3480156104b157600080fd5b506104ba610fa2565b6040516104c7919061287e565b60405180910390f35b3480156104dc57600080fd5b506104e5611034565b6040516104f29190612c31565b60405180910390f35b34801561050757600080fd5b50610522600480360381019061051d9190612c4c565b61103a565b005b34801561053057600080fd5b50610539611050565b60405161054691906127ca565b60405180910390f35b34801561055b57600080fd5b50610564611063565b6040516105719190612c31565b60405180910390f35b34801561058657600080fd5b506105a1600480360381019061059c9190612d2d565b611069565b005b3480156105af57600080fd5b506105ca60048036038101906105c59190612bac565b6110cb565b005b3480156105d857600080fd5b506105e16110ed565b6040516105ee919061287e565b60405180910390f35b34801561060357600080fd5b5061061e600480360381019061061991906128d6565b61117b565b60405161062b919061287e565b60405180910390f35b34801561064057600080fd5b506106496112a2565b6040516106569190612c31565b60405180910390f35b34801561066b57600080fd5b5061068660048036038101906106819190612db0565b6112a8565b60405161069391906127ca565b60405180910390f35b3480156106a857600080fd5b506106b161133c565b6040516106be919061287e565b60405180910390f35b3480156106d357600080fd5b506106ee60048036038101906106e99190612bf5565b6113ca565b005b60007f80ac58cd000000000000000000000000000000000000000000000000000000007bffffffffffffffffffffffffffffffffffffffffffffffffffffffff1916827bffffffffffffffffffffffffffffffffffffffffffffffffffffffff191614806107bb57507f5b5e139f000000000000000000000000000000000000000000000000000000007bffffffffffffffffffffffffffffffffffffffffffffffffffffffff1916827bffffffffffffffffffffffffffffffffffffffffffffffffffffffff1916145b806107cb57506107ca8261144e565b5b9050919050565b6060600080546107e190612e1f565b80601f016020809104026020016040519081016040528092919081815260200182805461080d90612e1f565b801561085a5780601f1061082f5761010080835404028352916020019161085a565b820191906000526020600020905b81548152906001019060200180831161083d57829003601f168201915b5050505050905090565b600061086f826114b8565b6004600083815260200190815260200160002060009054906101000a900473ffffffffffffffffffffffffffffffffffffffff169050919050565b60006108b582610d91565b90508073ffffffffffffffffffffffffffffffffffffffff168373ffffffffffffffffffffffffffffffffffffffff161415610926576040517f08c379a000000000000000000000000000000000000000000000000000000000815260040161091d90612ec3565b60405180910390fd5b8073ffffffffffffffffffffffffffffffffffffffff16610945611503565b73ffffffffffffffffffffffffffffffffffffffff16148061097457506109738161096e611503565b6112a8565b5b6109b3576040517f08c379a00000000000000000000000000000000000000000000000000000000081526004016109aa90612f55565b60405180910390fd5b6109bd838361150b565b505050565b6109d36109cd611503565b826115c4565b610a12576040517f08c379a0000000000000000000000000000000000000000000000000000000008152600401610a0990612fe7565b60405180910390fd5b610a1d838383611659565b505050565b610a2a611953565b80600760146101000a81548160ff02191690831515021790555060005b600b54811015610a7c57610a5a8161117b565b508080610a6690613036565b9150508080610a7490613036565b915050610a47565b5050565b610a88611953565b6000610a92610f78565b73ffffffffffffffffffffffffffffffffffffffff1647604051610ab5906130b0565b60006040518083038185875af1925050503d8060008114610af2576040519150601f19603f3d011682016040523d82523d6000602084013e610af7565b606091505b5050905080610b0557600080fd5b50565b6000600b54905081600010610b52576040517f08c379a0000000000000000000000000000000000000000000000000000000008152600401610b4990613137565b60405180910390fd5b600d548110610b96576040517f08c379a0000000000000000000000000000000000000000000000000000000008152600401610b8d906131a3565b60405180910390fd5b600d548282610ba591906131c3565b1115610be6576040517f08c379a0000000000000000000000000000000000000000000000000000000008152600401610bdd9061328b565b60405180910390fd5b610bee610f78565b73ffffffffffffffffffffffffffffffffffffffff168373ffffffffffffffffffffffffffffffffffffffff1614610c925781600c54610c2e91906132ab565b341015610c3a57600080fd5b600e5482610c4785610ea6565b610c5191906131c3565b10610c91576040517f08c379a0000000000000000000000000000000000000000000000000000000008152600401610c8890613351565b60405180910390fd5b5b60005b82811015610ced5760008183610cab91906131c3565b9050610cb785826119d1565b610cc08161117b565b50600b6000815480929190610cd490613036565b9190505550508080610ce590613036565b915050610c95565b50505050565b610d0e83838360405180602001604052806000815250611069565b505050565b610d24610d1e611503565b826115c4565b610d63576040517f08c379a0000000000000000000000000000000000000000000000000000000008152600401610d5a90612fe7565b60405180910390fd5b610d6c816119ef565b50565b610d77611953565b8060099080519060200190610d8d929190612633565b5050565b600080610d9d836119fb565b9050600073ffffffffffffffffffffffffffffffffffffffff168173ffffffffffffffffffffffffffffffffffffffff161415610e0f576040517f08c379a0000000000000000000000000000000000000000000000000000000008152600401610e06906133bd565b60405180910390fd5b80915050919050565b60098054610e2590612e1f565b80601f0160208091040260200160405190810160405280929190818152602001828054610e5190612e1f565b8015610e9e5780601f10610e7357610100808354040283529160200191610e9e565b820191906000526020600020905b815481529060010190602001808311610e8157829003601f168201915b505050505081565b60008073ffffffffffffffffffffffffffffffffffffffff168273ffffffffffffffffffffffffffffffffffffffff161415610f17576040517f08c379a0000000000000000000000000000000000000000000000000000000008152600401610f0e9061344f565b60405180910390fd5b600360008373ffffffffffffffffffffffffffffffffffffffff1673ffffffffffffffffffffffffffffffffffffffff168152602001908152602001600020549050919050565b610f66611953565b610f706000611a38565b565b600b5481565b6000600760009054906101000a900473ffffffffffffffffffffffffffffffffffffffff16905090565b606060018054610fb190612e1f565b80601f0160208091040260200160405190810160405280929190818152602001828054610fdd90612e1f565b801561102a5780601f10610fff5761010080835404028352916020019161102a565b820191906000526020600020905b81548152906001019060200180831161100d57829003601f168201915b5050505050905090565b600c5481565b61104c611045611503565b8383611afe565b5050565b600760149054906101000a900460ff1681565b600e5481565b61107a611074611503565b836115c4565b6110b9576040517f08c379a00000000000000000000000000000000000000000000000000000000081526004016110b090612fe7565b60405180910390fd5b6110c584848484611c6b565b50505050565b6110d3611953565b80600890805190602001906110e9929190612633565b5050565b600a80546110fa90612e1f565b80601f016020809104026020016040519081016040528092919081815260200182805461112690612e1f565b80156111735780601f1061114857610100808354040283529160200191611173565b820191906000526020600020905b81548152906001019060200180831161115657829003601f168201915b505050505081565b606061118682611cc7565b6111c5576040517f08c379a00000000000000000000000000000000000000000000000000000000081526004016111bc906134bb565b60405180910390fd5b600760149054906101000a900460ff161561126c57600880546111e790612e1f565b80601f016020809104026020016040519081016040528092919081815260200182805461121390612e1f565b80156112605780601f1061123557610100808354040283529160200191611260565b820191906000526020600020905b81548152906001019060200180831161124357829003601f168201915b5050505050905061129d565b600961127783611d08565b600a60405160200161128b939291906135ab565b60405160208183030381529060405290505b919050565b600d5481565b6000600560008473ffffffffffffffffffffffffffffffffffffffff1673ffffffffffffffffffffffffffffffffffffffff16815260200190815260200160002060008373ffffffffffffffffffffffffffffffffffffffff1673ffffffffffffffffffffffffffffffffffffffff16815260200190815260200160002060009054906101000a900460ff16905092915050565b6008805461134990612e1f565b80601f016020809104026020016040519081016040528092919081815260200182805461137590612e1f565b80156113c25780601f10611397576101008083540402835291602001916113c2565b820191906000526020600020905b8154815290600101906020018083116113a557829003601f168201915b505050505081565b6113d2611953565b600073ffffffffffffffffffffffffffffffffffffffff168173ffffffffffffffffffffffffffffffffffffffff161415611442576040517f08c379a00000000000000000000000000000000000000000000000000000000081526004016114399061364e565b60405180910390fd5b61144b81611a38565b50565b60007f01ffc9a7000000000000000000000000000000000000000000000000000000007bffffffffffffffffffffffffffffffffffffffffffffffffffffffff1916827bffffffffffffffffffffffffffffffffffffffffffffffffffffffff1916149050919050565b6114c181611cc7565b611500576040517f08c379a00000000000000000000000000000000000000000000000000000000081526004016114f7906133bd565b60405180910390fd5b50565b600033905090565b816004600083815260200190815260200160002060006101000a81548173ffffffffffffffffffffffffffffffffffffffff021916908373ffffffffffffffffffffffffffffffffffffffff160217905550808273ffffffffffffffffffffffffffffffffffffffff1661157e83610d91565b73ffffffffffffffffffffffffffffffffffffffff167f8c5be1e5ebec7d5bd14f71427d1e84f3dd0314c0f7b2291e5b200ac8c7c3b92560405160405180910390a45050565b6000806115d083610d91565b90508073ffffffffffffffffffffffffffffffffffffffff168473ffffffffffffffffffffffffffffffffffffffff161480611612575061161181856112a8565b5b8061165057508373ffffffffffffffffffffffffffffffffffffffff1661163884610864565b73ffffffffffffffffffffffffffffffffffffffff16145b91505092915050565b8273ffffffffffffffffffffffffffffffffffffffff1661167982610d91565b73ffffffffffffffffffffffffffffffffffffffff16146116cf576040517f08c379a00000000000000000000000000000000000000000000000000000000081526004016116c6906136e0565b60405180910390fd5b600073ffffffffffffffffffffffffffffffffffffffff168273ffffffffffffffffffffffffffffffffffffffff16141561173f576040517f08c379a000000000000000000000000000000000000000000000000000000000815260040161173690613772565b60405180910390fd5b61174c8383836001611de0565b8273ffffffffffffffffffffffffffffffffffffffff1661176c82610d91565b73ffffffffffffffffffffffffffffffffffffffff16146117c2576040517f08c379a00000000000000000000000000000000000000000000000000000000081526004016117b9906136e0565b60405180910390fd5b6004600082815260200190815260200160002060006101000a81549073ffffffffffffffffffffffffffffffffffffffff02191690556001600360008573ffffffffffffffffffffffffffffffffffffffff1673ffffffffffffffffffffffffffffffffffffffff168152602001908152602001600020600082825403925050819055506001600360008473ffffffffffffffffffffffffffffffffffffffff1673ffffffffffffffffffffffffffffffffffffffff16815260200190815260200160002060008282540192505081905550816002600083815260200190815260200160002060006101000a81548173ffffffffffffffffffffffffffffffffffffffff021916908373ffffffffffffffffffffffffffffffffffffffff160217905550808273ffffffffffffffffffffffffffffffffffffffff168473ffffffffffffffffffffffffffffffffffffffff167fddf252ad1be2c89b69c2b068fc378daa952ba7f163c4a11628f55a4df523b3ef60405160405180910390a461194e8383836001611f06565b505050565b61195b611503565b73ffffffffffffffffffffffffffffffffffffffff16611979610f78565b73ffffffffffffffffffffffffffffffffffffffff16146119cf576040517f08c379a00000000000000000000000000000000000000000000000000000000081526004016119c6906137de565b60405180910390fd5b565b6119eb828260405180602001604052806000815250611f0c565b5050565b6119f881611f67565b50565b60006002600083815260200190815260200160002060009054906101000a900473ffffffffffffffffffffffffffffffffffffffff169050919050565b6000600760009054906101000a900473ffffffffffffffffffffffffffffffffffffffff16905081600760006101000a81548173ffffffffffffffffffffffffffffffffffffffff021916908373ffffffffffffffffffffffffffffffffffffffff1602179055508173ffffffffffffffffffffffffffffffffffffffff168173ffffffffffffffffffffffffffffffffffffffff167f8be0079c531659141344cd1fd0a4f28419497f9722a3daafe3b4186f6b6457e060405160405180910390a35050565b8173ffffffffffffffffffffffffffffffffffffffff168373ffffffffffffffffffffffffffffffffffffffff161415611b6d576040517f08c379a0000000000000000000000000000000000000000000000000000000008152600401611b649061384a565b60405180910390fd5b80600560008573ffffffffffffffffffffffffffffffffffffffff1673ffffffffffffffffffffffffffffffffffffffff16815260200190815260200160002060008473ffffffffffffffffffffffffffffffffffffffff1673ffffffffffffffffffffffffffffffffffffffff16815260200190815260200160002060006101000a81548160ff0219169083151502179055508173ffffffffffffffffffffffffffffffffffffffff168373ffffffffffffffffffffffffffffffffffffffff167f17307eab39ab6107e8899845ad3d59bd9653f200f220920489ca2b5937696c3183604051611c5e91906127ca565b60405180910390a3505050565b611c76848484611659565b611c8284848484611fba565b611cc1576040517f08c379a0000000000000000000000000000000000000000000000000000000008152600401611cb8906138dc565b60405180910390fd5b50505050565b60008073ffffffffffffffffffffffffffffffffffffffff16611ce9836119fb565b73ffffffffffffffffffffffffffffffffffffffff1614159050919050565b606060006001611d1784612151565b01905060008167ffffffffffffffff811115611d3657611d35612a81565b5b6040519080825280601f01601f191660200182016040528015611d685781602001600182028036833780820191505090505b509050600082602001820190505b600115611dd5578080600190039150507f3031323334353637383961626364656600000000000000000000000000000000600a86061a8153600a8581611dbf57611dbe6138fc565b5b0494506000851415611dd057611dd5565b611d76565b819350505050919050565b6001811115611f0057600073ffffffffffffffffffffffffffffffffffffffff168473ffffffffffffffffffffffffffffffffffffffff1614611e745780600360008673ffffffffffffffffffffffffffffffffffffffff1673ffffffffffffffffffffffffffffffffffffffff1681526020019081526020016000206000828254611e6c919061392b565b925050819055505b600073ffffffffffffffffffffffffffffffffffffffff168373ffffffffffffffffffffffffffffffffffffffff1614611eff5780600360008573ffffffffffffffffffffffffffffffffffffffff1673ffffffffffffffffffffffffffffffffffffffff1681526020019081526020016000206000828254611ef791906131c3565b925050819055505b5b50505050565b50505050565b611f1683836122a4565b611f236000848484611fba565b611f62576040517f08c379a0000000000000000000000000000000000000000000000000000000008152600401611f59906138dc565b60405180910390fd5b505050565b611f70816124c2565b6000600660008381526020019081526020016000208054611f9090612e1f565b905014611fb757600660008281526020019081526020016000206000611fb691906126b9565b5b50565b6000611fdb8473ffffffffffffffffffffffffffffffffffffffff16612610565b15612144578373ffffffffffffffffffffffffffffffffffffffff1663150b7a02612004611503565b8786866040518563ffffffff1660e01b815260040161202694939291906139b4565b602060405180830381600087803b15801561204057600080fd5b505af192505050801561207157506040513d601f19601f8201168201806040525081019061206e9190613a15565b60015b6120f4573d80600081146120a1576040519150601f19603f3d011682016040523d82523d6000602084013e6120a6565b606091505b506000815114156120ec576040517f08c379a00000000000000000000000000000000000000000000000000000000081526004016120e3906138dc565b60405180910390fd5b805181602001fd5b63150b7a0260e01b7bffffffffffffffffffffffffffffffffffffffffffffffffffffffff1916817bffffffffffffffffffffffffffffffffffffffffffffffffffffffff191614915050612149565b600190505b949350505050565b600080600090507a184f03e93ff9f4daa797ed6e38ed64bf6a1f01000000000000000083106121af577a184f03e93ff9f4daa797ed6e38ed64bf6a1f01000000000000000083816121a5576121a46138fc565b5b0492506040810190505b6d04ee2d6d415b85acef810000000083106121ec576d04ee2d6d415b85acef810000000083816121e2576121e16138fc565b5b0492506020810190505b662386f26fc10000831061221b57662386f26fc100008381612211576122106138fc565b5b0492506010810190505b6305f5e1008310612244576305f5e100838161223a576122396138fc565b5b0492506008810190505b612710831061226957612710838161225f5761225e6138fc565b5b0492506004810190505b6064831061228c5760648381612282576122816138fc565b5b0492506002810190505b600a831061229b576001810190505b80915050919050565b600073ffffffffffffffffffffffffffffffffffffffff168273ffffffffffffffffffffffffffffffffffffffff161415612314576040517f08c379a000000000000000000000000000000000000000000000000000000000815260040161230b90613a8e565b60405180910390fd5b61231d81611cc7565b1561235d576040517f08c379a000000000000000000000000000000000000000000000000000000000815260040161235490613afa565b60405180910390fd5b61236b600083836001611de0565b61237481611cc7565b156123b4576040517f08c379a00000000000000000000000000000000000000000000000000000000081526004016123ab90613afa565b60405180910390fd5b6001600360008473ffffffffffffffffffffffffffffffffffffffff1673ffffffffffffffffffffffffffffffffffffffff16815260200190815260200160002060008282540192505081905550816002600083815260200190815260200160002060006101000a81548173ffffffffffffffffffffffffffffffffffffffff021916908373ffffffffffffffffffffffffffffffffffffffff160217905550808273ffffffffffffffffffffffffffffffffffffffff16600073ffffffffffffffffffffffffffffffffffffffff167fddf252ad1be2c89b69c2b068fc378daa952ba7f163c4a11628f55a4df523b3ef60405160405180910390a46124be600083836001611f06565b5050565b60006124cd82610d91565b90506124dd816000846001611de0565b6124e682610d91565b90506004600083815260200190815260200160002060006101000a81549073ffffffffffffffffffffffffffffffffffffffff02191690556001600360008373ffffffffffffffffffffffffffffffffffffffff1673ffffffffffffffffffffffffffffffffffffffff168152602001908152602001600020600082825403925050819055506002600083815260200190815260200160002060006101000a81549073ffffffffffffffffffffffffffffffffffffffff021916905581600073ffffffffffffffffffffffffffffffffffffffff168273ffffffffffffffffffffffffffffffffffffffff167fddf252ad1be2c89b69c2b068fc378daa952ba7f163c4a11628f55a4df523b3ef60405160405180910390a461260c816000846001611f06565b5050565b6000808273ffffffffffffffffffffffffffffffffffffffff163b119050919050565b82805461263f90612e1f565b90600052602060002090601f01602090048101928261266157600085556126a8565b82601f1061267a57805160ff19168380011785556126a8565b828001600101855582156126a8579182015b828111156126a757825182559160200191906001019061268c565b5b5090506126b591906126f9565b5090565b5080546126c590612e1f565b6000825580601f106126d757506126f6565b601f0160209004906000526020600020908101906126f591906126f9565b5b50565b5b808211156127125760008160009055506001016126fa565b5090565b6000604051905090565b600080fd5b600080fd5b60007fffffffff0000000000000000000000000000000000000000000000000000000082169050919050565b61275f8161272a565b811461276a57600080fd5b50565b60008135905061277c81612756565b92915050565b60006020828403121561279857612797612720565b5b60006127a68482850161276d565b91505092915050565b60008115159050919050565b6127c4816127af565b82525050565b60006020820190506127df60008301846127bb565b92915050565b600081519050919050565b600082825260208201905092915050565b60005b8381101561281f578082015181840152602081019050612804565b8381111561282e576000848401525b50505050565b6000601f19601f8301169050919050565b6000612850826127e5565b61285a81856127f0565b935061286a818560208601612801565b61287381612834565b840191505092915050565b600060208201905081810360008301526128988184612845565b905092915050565b6000819050919050565b6128b3816128a0565b81146128be57600080fd5b50565b6000813590506128d0816128aa565b92915050565b6000602082840312156128ec576128eb612720565b5b60006128fa848285016128c1565b91505092915050565b600073ffffffffffffffffffffffffffffffffffffffff82169050919050565b600061292e82612903565b9050919050565b61293e81612923565b82525050565b60006020820190506129596000830184612935565b92915050565b61296881612923565b811461297357600080fd5b50565b6000813590506129858161295f565b92915050565b600080604083850312156129a2576129a1612720565b5b60006129b085828601612976565b92505060206129c1858286016128c1565b9150509250929050565b6000806000606084860312156129e4576129e3612720565b5b60006129f286828701612976565b9350506020612a0386828701612976565b9250506040612a14868287016128c1565b9150509250925092565b612a27816127af565b8114612a3257600080fd5b50565b600081359050612a4481612a1e565b92915050565b600060208284031215612a6057612a5f612720565b5b6000612a6e84828501612a35565b91505092915050565b600080fd5b600080fd5b7f4e487b7100000000000000000000000000000000000000000000000000000000600052604160045260246000fd5b612ab982612834565b810181811067ffffffffffffffff82111715612ad857612ad7612a81565b5b80604052505050565b6000612aeb612716565b9050612af78282612ab0565b919050565b600067ffffffffffffffff821115612b1757612b16612a81565b5b612b2082612834565b9050602081019050919050565b82818337600083830152505050565b6000612b4f612b4a84612afc565b612ae1565b905082815260208101848484011115612b6b57612b6a612a7c565b5b612b76848285612b2d565b509392505050565b600082601f830112612b9357612b92612a77565b5b8135612ba3848260208601612b3c565b91505092915050565b600060208284031215612bc257612bc1612720565b5b600082013567ffffffffffffffff811115612be057612bdf612725565b5b612bec84828501612b7e565b91505092915050565b600060208284031215612c0b57612c0a612720565b5b6000612c1984828501612976565b91505092915050565b612c2b816128a0565b82525050565b6000602082019050612c466000830184612c22565b92915050565b60008060408385031215612c6357612c62612720565b5b6000612c7185828601612976565b9250506020612c8285828601612a35565b9150509250929050565b600067ffffffffffffffff821115612ca757612ca6612a81565b5b612cb082612834565b9050602081019050919050565b6000612cd0612ccb84612c8c565b612ae1565b905082815260208101848484011115612cec57612ceb612a7c565b5b612cf7848285612b2d565b509392505050565b600082601f830112612d1457612d13612a77565b5b8135612d24848260208601612cbd565b91505092915050565b60008060008060808587031215612d4757612d46612720565b5b6000612d5587828801612976565b9450506020612d6687828801612976565b9350506040612d77878288016128c1565b925050606085013567ffffffffffffffff811115612d9857612d97612725565b5b612da487828801612cff565b91505092959194509250565b60008060408385031215612dc757612dc6612720565b5b6000612dd585828601612976565b9250506020612de685828601612976565b9150509250929050565b7f4e487b7100000000000000000000000000000000000000000000000000000000600052602260045260246000fd5b60006002820490506001821680612e3757607f821691505b60208210811415612e4b57612e4a612df0565b5b50919050565b7f4552433732313a20617070726f76616c20746f2063757272656e74206f776e6560008201527f7200000000000000000000000000000000000000000000000000000000000000602082015250565b6000612ead6021836127f0565b9150612eb882612e51565b604082019050919050565b60006020820190508181036000830152612edc81612ea0565b9050919050565b7f4552433732313a20617070726f76652063616c6c6572206973206e6f7420746f60008201527f6b656e206f776e6572206f7220617070726f76656420666f7220616c6c000000602082015250565b6000612f3f603d836127f0565b9150612f4a82612ee3565b604082019050919050565b60006020820190508181036000830152612f6e81612f32565b9050919050565b7f4552433732313a2063616c6c6572206973206e6f7420746f6b656e206f776e6560008201527f72206f7220617070726f76656400000000000000000000000000000000000000602082015250565b6000612fd1602d836127f0565b9150612fdc82612f75565b604082019050919050565b6000602082019050818103600083015261300081612fc4565b9050919050565b7f4e487b7100000000000000000000000000000000000000000000000000000000600052601160045260246000fd5b6000613041826128a0565b91507fffffffffffffffffffffffffffffffffffffffffffffffffffffffffffffffff82141561307457613073613007565b5b600182019050919050565b600081905092915050565b50565b600061309a60008361307f565b91506130a58261308a565b600082019050919050565b60006130bb8261308d565b9150819050919050565b7f4865792c20796f7520646f6e277420696e70757420636f727265637420616d6f60008201527f756e742e00000000000000000000000000000000000000000000000000000000602082015250565b60006131216024836127f0565b915061312c826130c5565b604082019050919050565b6000602082019050818103600083015261315081613114565b9050919050565b7f4f6f70732c20736f6c64206f75742e0000000000000000000000000000000000600082015250565b600061318d600f836127f0565b915061319882613157565b602082019050919050565b600060208201905081810360008301526131bc81613180565b9050919050565b60006131ce826128a0565b91506131d9836128a0565b9250827fffffffffffffffffffffffffffffffffffffffffffffffffffffffffffffffff0382111561320e5761320d613007565b5b828201905092915050565b7f48692c20746865726520617265206e6f7420656e6f756768204e46547320617660008201527f61696c61626c652e000000000000000000000000000000000000000000000000602082015250565b60006132756028836127f0565b915061328082613219565b604082019050919050565b600060208201905081810360008301526132a481613268565b9050919050565b60006132b6826128a0565b91506132c1836128a0565b9250817fffffffffffffffffffffffffffffffffffffffffffffffffffffffffffffffff04831182151516156132fa576132f9613007565b5b828202905092915050565b7f536f7272792c20796f752063616e206f6e6c79206d696e7420332e0000000000600082015250565b600061333b601b836127f0565b915061334682613305565b602082019050919050565b6000602082019050818103600083015261336a8161332e565b9050919050565b7f4552433732313a20696e76616c696420746f6b656e2049440000000000000000600082015250565b60006133a76018836127f0565b91506133b282613371565b602082019050919050565b600060208201905081810360008301526133d68161339a565b9050919050565b7f4552433732313a2061646472657373207a65726f206973206e6f74206120766160008201527f6c6964206f776e65720000000000000000000000000000000000000000000000602082015250565b60006134396029836127f0565b9150613444826133dd565b604082019050919050565b600060208201905081810360008301526134688161342c565b9050919050565b7f4e4654206973206e6f742065786973742e000000000000000000000000000000600082015250565b60006134a56011836127f0565b91506134b08261346f565b602082019050919050565b600060208201905081810360008301526134d481613498565b9050919050565b600081905092915050565b60008190508160005260206000209050919050565b6000815461350881612e1f565b61351281866134db565b9450600182166000811461352d576001811461353e57613571565b60ff19831686528186019350613571565b613547856134e6565b60005b838110156135695781548189015260018201915060208101905061354a565b838801955050505b50505092915050565b6000613585826127e5565b61358f81856134db565b935061359f818560208601612801565b80840191505092915050565b60006135b782866134fb565b91506135c3828561357a565b91506135cf82846134fb565b9150819050949350505050565b7f4f776e61626c653a206e6577206f776e657220697320746865207a65726f206160008201527f6464726573730000000000000000000000000000000000000000000000000000602082015250565b60006136386026836127f0565b9150613643826135dc565b604082019050919050565b600060208201905081810360008301526136678161362b565b9050919050565b7f4552433732313a207472616e736665722066726f6d20696e636f72726563742060008201527f6f776e6572000000000000000000000000000000000000000000000000000000602082015250565b60006136ca6025836127f0565b91506136d58261366e565b604082019050919050565b600060208201905081810360008301526136f9816136bd565b9050919050565b7f4552433732313a207472616e7366657220746f20746865207a65726f2061646460008201527f7265737300000000000000000000000000000000000000000000000000000000602082015250565b600061375c6024836127f0565b915061376782613700565b604082019050919050565b6000602082019050818103600083015261378b8161374f565b9050919050565b7f4f776e61626c653a2063616c6c6572206973206e6f7420746865206f776e6572600082015250565b60006137c86020836127f0565b91506137d382613792565b602082019050919050565b600060208201905081810360008301526137f7816137bb565b9050919050565b7f4552433732313a20617070726f766520746f2063616c6c657200000000000000600082015250565b60006138346019836127f0565b915061383f826137fe565b602082019050919050565b6000602082019050818103600083015261386381613827565b9050919050565b7f4552433732313a207472616e7366657220746f206e6f6e20455243373231526560008201527f63656976657220696d706c656d656e7465720000000000000000000000000000602082015250565b60006138c66032836127f0565b91506138d18261386a565b604082019050919050565b600060208201905081810360008301526138f5816138b9565b9050919050565b7f4e487b7100000000000000000000000000000000000000000000000000000000600052601260045260246000fd5b6000613936826128a0565b9150613941836128a0565b92508282101561395457613953613007565b5b828203905092915050565b600081519050919050565b600082825260208201905092915050565b60006139868261395f565b613990818561396a565b93506139a0818560208601612801565b6139a981612834565b840191505092915050565b60006080820190506139c96000830187612935565b6139d66020830186612935565b6139e36040830185612c22565b81810360608301526139f5818461397b565b905095945050505050565b600081519050613a0f81612756565b92915050565b600060208284031215613a2b57613a2a612720565b5b6000613a3984828501613a00565b91505092915050565b7f4552433732313a206d696e7420746f20746865207a65726f2061646472657373600082015250565b6000613a786020836127f0565b9150613a8382613a42565b602082019050919050565b60006020820190508181036000830152613aa781613a6b565b9050919050565b7f4552433732313a20746f6b656e20616c7265616479206d696e74656400000000600082015250565b6000613ae4601c836127f0565b9150613aef82613aae565b602082019050919050565b60006020820190508181036000830152613b1381613ad7565b905091905056fea2646970667358221220c90af5ad5e135e6d1b1f414f63ee7f60be9a88b8020eeef4d233fd7d668e034a64736f6c63430008090033697066733a2f2f516d657642464d3565743564436865323447387a32487978617845684d464834314a6a586f335544716735383578697066733a2f2f516d5155775031737751646856343451566b6a68723675335264486443664a7375643956544769753371354851342f",
  "linkReferences": {},
  "deployedLinkReferences": {}
}