{
  "_format": "hh-sol-artifact-1",
  "contractName": "CatsAndFoxes",
  "sourceName": "contracts/CatAndFox.sol",
  "abi": [
    {
      "inputs": [],
      "stateMutability": "nonpayable",
      "type": "constructor"
    },
    {
      "anonymous": false,
      "inputs": [
        {
          "indexed": true,
          "internalType": "address",
          "name": "owner",
          "type": "address"
        },
        {
          "indexed": true,
          "internalType": "address",
          "name": "approved",
          "type": "address"
        },
        {
          "indexed": true,
          "internalType": "uint256",
          "name": "tokenId",
          "type": "uint256"
        }
      ],
      "name": "Approval",
      "type": "event"
    },
    {
      "anonymous": false,
      "inputs": [
        {
          "indexed": true,
          "internalType": "address",
          "name": "owner",
          "type": "address"
        },
        {
          "indexed": true,
          "internalType": "address",
          "name": "operator",
          "type": "address"
        },
        {
          "indexed": false,
          "internalType": "bool",
          "name": "approved",
          "type": "bool"
        }
      ],
      "name": "ApprovalForAll",
      "type": "event"
    },
    {
      "anonymous": false,
      "inputs": [
        {
          "indexed": true,
          "internalType": "address",
          "name": "previousOwner",
          "type": "address"
        },
        {
          "indexed": true,
          "internalType": "address",
          "name": "newOwner",
          "type": "address"
        }
      ],
      "name": "OwnershipTransferred",
      "type": "event"
    },
    {
      "anonymous": false,
      "inputs": [
        {
          "indexed": true,
          "internalType": "address",
          "name": "from",
          "type": "address"
        },
        {
          "indexed": true,
          "internalType": "address",
          "name": "to",
          "type": "address"
        },
        {
          "indexed": true,
          "internalType": "uint256",
          "name": "tokenId",
          "type": "uint256"
        }
      ],
      "name": "Transfer",
      "type": "event"
    },
    {
      "inputs": [
        {
          "internalType": "address",
          "name": "to",
          "type": "address"
        },
        {
          "internalType": "uint256",
          "name": "tokenId",
          "type": "uint256"
        }
      ],
      "name": "approve",
      "outputs": [],
      "stateMutability": "nonpayable",
      "type": "function"
    },
    {
      "inputs": [
        {
          "internalType": "address",
          "name": "owner",
          "type": "address"
        }
      ],
      "name": "balanceOf",
      "outputs": [
        {
          "internalType": "uint256",
          "name": "",
          "type": "uint256"
        }
      ],
      "stateMutability": "view",
      "type": "function"
    },
    {
      "inputs": [],
      "name": "baseExtension",
      "outputs": [
        {
          "internalType": "string",
          "name": "",
          "type": "string"
        }
      ],
      "stateMutability": "view",
      "type": "function"
    },
    {
      "inputs": [],
      "name": "baseURI",
      "outputs": [
        {
          "internalType": "string",
          "name": "",
          "type": "string"
        }
      ],
      "stateMutability": "view",
      "type": "function"
    },
    {
      "inputs": [
        {
          "internalType": "uint256",
          "name": "tokenId",
          "type": "uint256"
        }
      ],
      "name": "burn",
      "outputs": [],
      "stateMutability": "nonpayable",
      "type": "function"
    },
    {
      "inputs": [
        {
          "internalType": "uint256",
          "name": "tokenId",
          "type": "uint256"
        }
      ],
      "name": "getApproved",
      "outputs": [
        {
          "internalType": "address",
          "name": "",
          "type": "address"
        }
      ],
      "stateMutability": "view",
      "type": "function"
    },
    {
      "inputs": [
        {
          "internalType": "address",
          "name": "owner",
          "type": "address"
        },
        {
          "internalType": "address",
          "name": "operator",
          "type": "address"
        }
      ],
      "name": "isApprovedForAll",
      "outputs": [
        {
          "internalType": "bool",
          "name": "",
          "type": "bool"
        }
      ],
      "stateMutability": "view",
      "type": "function"
    },
    {
      "inputs": [],
      "name": "mint",
      "outputs": [
        {
          "internalType": "uint256",
          "name": "",
          "type": "uint256"
        }
      ],
      "stateMutability": "payable",
      "type": "function"
    },
    {
      "inputs": [],
      "name": "name",
      "outputs": [
        {
          "internalType": "string",
          "name": "",
          "type": "string"
        }
      ],
      "stateMutability": "view",
      "type": "function"
    },
    {
      "inputs": [],
      "name": "nextTokenId",
      "outputs": [
        {
          "internalType": "uint256",
          "name": "",
          "type": "uint256"
        }
      ],
      "stateMutability": "view",
      "type": "function"
    },
    {
      "inputs": [],
      "name": "owner",
      "outputs": [
        {
          "internalType": "address",
          "name": "",
          "type": "address"
        }
      ],
      "stateMutability": "view",
      "type": "function"
    },
    {
      "inputs": [
        {
          "internalType": "uint256",
          "name": "tokenId",
          "type": "uint256"
        }
      ],
      "name": "ownerOf",
      "outputs": [
        {
          "internalType": "address",
          "name": "",
          "type": "address"
        }
      ],
      "stateMutability": "view",
      "type": "function"
    },
    {
      "inputs": [],
      "name": "renounceOwnership",
      "outputs": [],
      "stateMutability": "nonpayable",
      "type": "function"
    },
    {
      "inputs": [
        {
          "internalType": "address",
          "name": "from",
          "type": "address"
        },
        {
          "internalType": "address",
          "name": "to",
          "type": "address"
        },
        {
          "internalType": "uint256",
          "name": "tokenId",
          "type": "uint256"
        }
      ],
      "name": "safeTransferFrom",
      "outputs": [],
      "stateMutability": "nonpayable",
      "type": "function"
    },
    {
      "inputs": [
        {
          "internalType": "address",
          "name": "from",
          "type": "address"
        },
        {
          "internalType": "address",
          "name": "to",
          "type": "address"
        },
        {
          "internalType": "uint256",
          "name": "tokenId",
          "type": "uint256"
        },
        {
          "internalType": "bytes",
          "name": "data",
          "type": "bytes"
        }
      ],
      "name": "safeTransferFrom",
      "outputs": [],
      "stateMutability": "nonpayable",
      "type": "function"
    },
    {
      "inputs": [
        {
          "internalType": "address",
          "name": "operator",
          "type": "address"
        },
        {
          "internalType": "bool",
          "name": "approved",
          "type": "bool"
        }
      ],
      "name": "setApprovalForAll",
      "outputs": [],
      "stateMutability": "nonpayable",
      "type": "function"
    },
    {
      "inputs": [
        {
          "internalType": "bytes4",
          "name": "interfaceId",
          "type": "bytes4"
        }
      ],
      "name": "supportsInterface",
      "outputs": [
        {
          "internalType": "bool",
          "name": "",
          "type": "bool"
        }
      ],
      "stateMutability": "view",
      "type": "function"
    },
    {
      "inputs": [],
      "name": "symbol",
      "outputs": [
        {
          "internalType": "string",
          "name": "",
          "type": "string"
        }
      ],
      "stateMutability": "view",
      "type": "function"
    },
    {
      "inputs": [
        {
          "internalType": "uint256",
          "name": "index",
          "type": "uint256"
        }
      ],
      "name": "tokenByIndex",
      "outputs": [
        {
          "internalType": "uint256",
          "name": "",
          "type": "uint256"
        }
      ],
      "stateMutability": "view",
      "type": "function"
    },
    {
      "inputs": [
        {
          "internalType": "address",
          "name": "owner",
          "type": "address"
        },
        {
          "internalType": "uint256",
          "name": "index",
          "type": "uint256"
        }
      ],
      "name": "tokenOfOwnerByIndex",
      "outputs": [
        {
          "internalType": "uint256",
          "name": "",
          "type": "uint256"
        }
      ],
      "stateMutability": "view",
      "type": "function"
    },
    {
      "inputs": [
        {
          "internalType": "uint256",
          "name": "tokenId",
          "type": "uint256"
        }
      ],
      "name": "tokenURI",
      "outputs": [
        {
          "internalType": "string",
          "name": "",
          "type": "string"
        }
      ],
      "stateMutability": "view",
      "type": "function"
    },
    {
      "inputs": [],
      "name": "totalSupply",
      "outputs": [
        {
          "internalType": "uint256",
          "name": "",
          "type": "uint256"
        }
      ],
      "stateMutability": "view",
      "type": "function"
    },
    {
      "inputs": [
        {
          "internalType": "address",
          "name": "from",
          "type": "address"
        },
        {
          "internalType": "address",
          "name": "to",
          "type": "address"
        },
        {
          "internalType": "uint256",
          "name": "tokenId",
          "type": "uint256"
        }
      ],
      "name": "transferFrom",
      "outputs": [],
      "stateMutability": "nonpayable",
      "type": "function"
    },
    {
      "inputs": [
        {
          "internalType": "address",
          "name": "newOwner",
          "type": "address"
        }
      ],
      "name": "transferOwnership",
      "outputs": [],
      "stateMutability": "nonpayable",
      "type": "function"
    }
  ],
  "bytecode": "0x608060405260405180606001604052806036815260200162003d3660369139600c9080519060200190620000359291906200022b565b506040518060400160405280600581526020017f2e6a736f6e000000000000000000000000000000000000000000000000000000815250600d9080519060200190620000839291906200022b565b506001600e553480156200009657600080fd5b506040518060400160405280600c81526020017f43617473416e64466f78657300000000000000000000000000000000000000008152506040518060400160405280600381526020017f434146000000000000000000000000000000000000000000000000000000000081525081600090805190602001906200011b9291906200022b565b508060019080519060200190620001349291906200022b565b505050620001576200014b6200015d60201b60201c565b6200016560201b60201c565b62000340565b600033905090565b6000600b60009054906101000a900473ffffffffffffffffffffffffffffffffffffffff16905081600b60006101000a81548173ffffffffffffffffffffffffffffffffffffffff021916908373ffffffffffffffffffffffffffffffffffffffff1602179055508173ffffffffffffffffffffffffffffffffffffffff168173ffffffffffffffffffffffffffffffffffffffff167f8be0079c531659141344cd1fd0a4f28419497f9722a3daafe3b4186f6b6457e060405160405180910390a35050565b82805462000239906200030a565b90600052602060002090601f0160209004810192826200025d5760008555620002a9565b82601f106200027857805160ff1916838001178555620002a9565b82800160010185558215620002a9579182015b82811115620002a85782518255916020019190600101906200028b565b5b509050620002b89190620002bc565b5090565b5b80821115620002d7576000816000905550600101620002bd565b5090565b7f4e487b7100000000000000000000000000000000000000000000000000000000600052602260045260246000fd5b600060028204905060018216806200032357607f821691505b602082108114156200033a5762000339620002db565b5b50919050565b6139e680620003506000396000f3fe60806040526004361061014b5760003560e01c80636c0360eb116100b6578063a22cb4651161006f578063a22cb46514610499578063b88d4fde146104c2578063c6682862146104eb578063c87b56dd14610516578063e985e9c514610553578063f2fde38b146105905761014b565b80636c0360eb1461039957806370a08231146103c4578063715018a61461040157806375794a3c146104185780638da5cb5b1461044357806395d89b411461046e5761014b565b806323b872dd1161010857806323b872dd146102675780632f745c591461029057806342842e0e146102cd57806342966c68146102f65780634f6ccce71461031f5780636352211e1461035c5761014b565b806301ffc9a71461015057806306fdde031461018d578063081812fc146101b8578063095ea7b3146101f55780631249c58b1461021e57806318160ddd1461023c575b600080fd5b34801561015c57600080fd5b50610177600480360381019061017291906127b7565b6105b9565b60405161018491906127ff565b60405180910390f35b34801561019957600080fd5b506101a26105cb565b6040516101af91906128b3565b60405180910390f35b3480156101c457600080fd5b506101df60048036038101906101da919061290b565b61065d565b6040516101ec9190612979565b60405180910390f35b34801561020157600080fd5b5061021c600480360381019061021791906129c0565b6106a3565b005b6102266107bb565b6040516102339190612a0f565b60405180910390f35b34801561024857600080fd5b506102516107f6565b60405161025e9190612a0f565b60405180910390f35b34801561027357600080fd5b5061028e60048036038101906102899190612a2a565b610803565b005b34801561029c57600080fd5b506102b760048036038101906102b291906129c0565b610863565b6040516102c49190612a0f565b60405180910390f35b3480156102d957600080fd5b506102f460048036038101906102ef9190612a2a565b610908565b005b34801561030257600080fd5b5061031d6004803603810190610318919061290b565b610928565b005b34801561032b57600080fd5b506103466004803603810190610341919061290b565b610984565b6040516103539190612a0f565b60405180910390f35b34801561036857600080fd5b50610383600480360381019061037e919061290b565b6109f5565b6040516103909190612979565b60405180910390f35b3480156103a557600080fd5b506103ae610a7c565b6040516103bb91906128b3565b60405180910390f35b3480156103d057600080fd5b506103eb60048036038101906103e69190612a7d565b610b0a565b6040516103f89190612a0f565b60405180910390f35b34801561040d57600080fd5b50610416610bc2565b005b34801561042457600080fd5b5061042d610bd6565b60405161043a9190612a0f565b60405180910390f35b34801561044f57600080fd5b50610458610bdc565b6040516104659190612979565b60405180910390f35b34801561047a57600080fd5b50610483610c06565b60405161049091906128b3565b60405180910390f35b3480156104a557600080fd5b506104c060048036038101906104bb9190612ad6565b610c98565b005b3480156104ce57600080fd5b506104e960048036038101906104e49190612c4b565b610cae565b005b3480156104f757600080fd5b50610500610d10565b60405161050d91906128b3565b60405180910390f35b34801561052257600080fd5b5061053d6004803603810190610538919061290b565b610d9e565b60405161054a91906128b3565b60405180910390f35b34801561055f57600080fd5b5061057a60048036038101906105759190612cce565b610e1d565b60405161058791906127ff565b60405180910390f35b34801561059c57600080fd5b506105b760048036038101906105b29190612a7d565b610eb1565b005b60006105c482610f35565b9050919050565b6060600080546105da90612d3d565b80601f016020809104026020016040519081016040528092919081815260200182805461060690612d3d565b80156106535780601f1061062857610100808354040283529160200191610653565b820191906000526020600020905b81548152906001019060200180831161063657829003601f168201915b5050505050905090565b600061066882610faf565b6004600083815260200190815260200160002060009054906101000a900473ffffffffffffffffffffffffffffffffffffffff169050919050565b60006106ae826109f5565b90508073ffffffffffffffffffffffffffffffffffffffff168373ffffffffffffffffffffffffffffffffffffffff16141561071f576040517f08c379a000000000000000000000000000000000000000000000000000000000815260040161071690612de1565b60405180910390fd5b8073ffffffffffffffffffffffffffffffffffffffff1661073e610ffa565b73ffffffffffffffffffffffffffffffffffffffff16148061076d575061076c81610767610ffa565b610e1d565b5b6107ac576040517f08c379a00000000000000000000000000000000000000000000000000000000081526004016107a390612e73565b60405180910390fd5b6107b68383611002565b505050565b600080600e5490506107cd33826110bb565b6107d681610d9e565b50600e60008154809291906107ea90612ec2565b91905055508091505090565b6000600980549050905090565b61081461080e610ffa565b826110d9565b610853576040517f08c379a000000000000000000000000000000000000000000000000000000000815260040161084a90612f7d565b60405180910390fd5b61085e83838361116e565b505050565b600061086e83610b0a565b82106108af576040517f08c379a00000000000000000000000000000000000000000000000000000000081526004016108a69061300f565b60405180910390fd5b600760008473ffffffffffffffffffffffffffffffffffffffff1673ffffffffffffffffffffffffffffffffffffffff168152602001908152602001600020600083815260200190815260200160002054905092915050565b61092383838360405180602001604052806000815250610cae565b505050565b610939610933610ffa565b826110d9565b610978576040517f08c379a000000000000000000000000000000000000000000000000000000000815260040161096f90612f7d565b60405180910390fd5b61098181611468565b50565b600061098e6107f6565b82106109cf576040517f08c379a00000000000000000000000000000000000000000000000000000000081526004016109c6906130a1565b60405180910390fd5b600982815481106109e3576109e26130c1565b5b90600052602060002001549050919050565b600080610a0183611474565b9050600073ffffffffffffffffffffffffffffffffffffffff168173ffffffffffffffffffffffffffffffffffffffff161415610a73576040517f08c379a0000000000000000000000000000000000000000000000000000000008152600401610a6a9061313c565b60405180910390fd5b80915050919050565b600c8054610a8990612d3d565b80601f0160208091040260200160405190810160405280929190818152602001828054610ab590612d3d565b8015610b025780601f10610ad757610100808354040283529160200191610b02565b820191906000526020600020905b815481529060010190602001808311610ae557829003601f168201915b505050505081565b60008073ffffffffffffffffffffffffffffffffffffffff168273ffffffffffffffffffffffffffffffffffffffff161415610b7b576040517f08c379a0000000000000000000000000000000000000000000000000000000008152600401610b72906131ce565b60405180910390fd5b600360008373ffffffffffffffffffffffffffffffffffffffff1673ffffffffffffffffffffffffffffffffffffffff168152602001908152602001600020549050919050565b610bca6114b1565b610bd4600061152f565b565b600e5481565b6000600b60009054906101000a900473ffffffffffffffffffffffffffffffffffffffff16905090565b606060018054610c1590612d3d565b80601f0160208091040260200160405190810160405280929190818152602001828054610c4190612d3d565b8015610c8e5780601f10610c6357610100808354040283529160200191610c8e565b820191906000526020600020905b815481529060010190602001808311610c7157829003601f168201915b5050505050905090565b610caa610ca3610ffa565b83836115f5565b5050565b610cbf610cb9610ffa565b836110d9565b610cfe576040517f08c379a0000000000000000000000000000000000000000000000000000000008152600401610cf590612f7d565b60405180910390fd5b610d0a84848484611762565b50505050565b600d8054610d1d90612d3d565b80601f0160208091040260200160405190810160405280929190818152602001828054610d4990612d3d565b8015610d965780601f10610d6b57610100808354040283529160200191610d96565b820191906000526020600020905b815481529060010190602001808311610d7957829003601f168201915b505050505081565b6060610da9826117be565b610de8576040517f08c379a0000000000000000000000000000000000000000000000000000000008152600401610ddf9061323a565b60405180910390fd5b600c610df3836117ff565b600d604051602001610e079392919061332a565b6040516020818303038152906040529050919050565b6000600560008473ffffffffffffffffffffffffffffffffffffffff1673ffffffffffffffffffffffffffffffffffffffff16815260200190815260200160002060008373ffffffffffffffffffffffffffffffffffffffff1673ffffffffffffffffffffffffffffffffffffffff16815260200190815260200160002060009054906101000a900460ff16905092915050565b610eb96114b1565b600073ffffffffffffffffffffffffffffffffffffffff168173ffffffffffffffffffffffffffffffffffffffff161415610f29576040517f08c379a0000000000000000000000000000000000000000000000000000000008152600401610f20906133cd565b60405180910390fd5b610f328161152f565b50565b60007f780e9d63000000000000000000000000000000000000000000000000000000007bffffffffffffffffffffffffffffffffffffffffffffffffffffffff1916827bffffffffffffffffffffffffffffffffffffffffffffffffffffffff19161480610fa85750610fa7826118d7565b5b9050919050565b610fb8816117be565b610ff7576040517f08c379a0000000000000000000000000000000000000000000000000000000008152600401610fee9061313c565b60405180910390fd5b50565b600033905090565b816004600083815260200190815260200160002060006101000a81548173ffffffffffffffffffffffffffffffffffffffff021916908373ffffffffffffffffffffffffffffffffffffffff160217905550808273ffffffffffffffffffffffffffffffffffffffff16611075836109f5565b73ffffffffffffffffffffffffffffffffffffffff167f8c5be1e5ebec7d5bd14f71427d1e84f3dd0314c0f7b2291e5b200ac8c7c3b92560405160405180910390a45050565b6110d58282604051806020016040528060008152506119b9565b5050565b6000806110e5836109f5565b90508073ffffffffffffffffffffffffffffffffffffffff168473ffffffffffffffffffffffffffffffffffffffff16148061112757506111268185610e1d565b5b8061116557508373ffffffffffffffffffffffffffffffffffffffff1661114d8461065d565b73ffffffffffffffffffffffffffffffffffffffff16145b91505092915050565b8273ffffffffffffffffffffffffffffffffffffffff1661118e826109f5565b73ffffffffffffffffffffffffffffffffffffffff16146111e4576040517f08c379a00000000000000000000000000000000000000000000000000000000081526004016111db9061345f565b60405180910390fd5b600073ffffffffffffffffffffffffffffffffffffffff168273ffffffffffffffffffffffffffffffffffffffff161415611254576040517f08c379a000000000000000000000000000000000000000000000000000000000815260040161124b906134f1565b60405180910390fd5b6112618383836001611a14565b8273ffffffffffffffffffffffffffffffffffffffff16611281826109f5565b73ffffffffffffffffffffffffffffffffffffffff16146112d7576040517f08c379a00000000000000000000000000000000000000000000000000000000081526004016112ce9061345f565b60405180910390fd5b6004600082815260200190815260200160002060006101000a81549073ffffffffffffffffffffffffffffffffffffffff02191690556001600360008573ffffffffffffffffffffffffffffffffffffffff1673ffffffffffffffffffffffffffffffffffffffff168152602001908152602001600020600082825403925050819055506001600360008473ffffffffffffffffffffffffffffffffffffffff1673ffffffffffffffffffffffffffffffffffffffff16815260200190815260200160002060008282540192505081905550816002600083815260200190815260200160002060006101000a81548173ffffffffffffffffffffffffffffffffffffffff021916908373ffffffffffffffffffffffffffffffffffffffff160217905550808273ffffffffffffffffffffffffffffffffffffffff168473ffffffffffffffffffffffffffffffffffffffff167fddf252ad1be2c89b69c2b068fc378daa952ba7f163c4a11628f55a4df523b3ef60405160405180910390a46114638383836001611a26565b505050565b61147181611a2c565b50565b60006002600083815260200190815260200160002060009054906101000a900473ffffffffffffffffffffffffffffffffffffffff169050919050565b6114b9610ffa565b73ffffffffffffffffffffffffffffffffffffffff166114d7610bdc565b73ffffffffffffffffffffffffffffffffffffffff161461152d576040517f08c379a00000000000000000000000000000000000000000000000000000000081526004016115249061355d565b60405180910390fd5b565b6000600b60009054906101000a900473ffffffffffffffffffffffffffffffffffffffff16905081600b60006101000a81548173ffffffffffffffffffffffffffffffffffffffff021916908373ffffffffffffffffffffffffffffffffffffffff1602179055508173ffffffffffffffffffffffffffffffffffffffff168173ffffffffffffffffffffffffffffffffffffffff167f8be0079c531659141344cd1fd0a4f28419497f9722a3daafe3b4186f6b6457e060405160405180910390a35050565b8173ffffffffffffffffffffffffffffffffffffffff168373ffffffffffffffffffffffffffffffffffffffff161415611664576040517f08c379a000000000000000000000000000000000000000000000000000000000815260040161165b906135c9565b60405180910390fd5b80600560008573ffffffffffffffffffffffffffffffffffffffff1673ffffffffffffffffffffffffffffffffffffffff16815260200190815260200160002060008473ffffffffffffffffffffffffffffffffffffffff1673ffffffffffffffffffffffffffffffffffffffff16815260200190815260200160002060006101000a81548160ff0219169083151502179055508173ffffffffffffffffffffffffffffffffffffffff168373ffffffffffffffffffffffffffffffffffffffff167f17307eab39ab6107e8899845ad3d59bd9653f200f220920489ca2b5937696c318360405161175591906127ff565b60405180910390a3505050565b61176d84848461116e565b61177984848484611a7f565b6117b8576040517f08c379a00000000000000000000000000000000000000000000000000000000081526004016117af9061365b565b60405180910390fd5b50505050565b60008073ffffffffffffffffffffffffffffffffffffffff166117e083611474565b73ffffffffffffffffffffffffffffffffffffffff1614159050919050565b60606000600161180e84611c16565b01905060008167ffffffffffffffff81111561182d5761182c612b20565b5b6040519080825280601f01601f19166020018201604052801561185f5781602001600182028036833780820191505090505b509050600082602001820190505b6001156118cc578080600190039150507f3031323334353637383961626364656600000000000000000000000000000000600a86061a8153600a85816118b6576118b561367b565b5b04945060008514156118c7576118cc565b61186d565b819350505050919050565b60007f80ac58cd000000000000000000000000000000000000000000000000000000007bffffffffffffffffffffffffffffffffffffffffffffffffffffffff1916827bffffffffffffffffffffffffffffffffffffffffffffffffffffffff191614806119a257507f5b5e139f000000000000000000000000000000000000000000000000000000007bffffffffffffffffffffffffffffffffffffffffffffffffffffffff1916827bffffffffffffffffffffffffffffffffffffffffffffffffffffffff1916145b806119b257506119b182611d69565b5b9050919050565b6119c38383611dd3565b6119d06000848484611a7f565b611a0f576040517f08c379a0000000000000000000000000000000000000000000000000000000008152600401611a069061365b565b60405180910390fd5b505050565b611a2084848484611ff1565b50505050565b50505050565b611a3581612151565b6000600660008381526020019081526020016000208054611a5590612d3d565b905014611a7c57600660008281526020019081526020016000206000611a7b91906126ee565b5b50565b6000611aa08473ffffffffffffffffffffffffffffffffffffffff1661229f565b15611c09578373ffffffffffffffffffffffffffffffffffffffff1663150b7a02611ac9610ffa565b8786866040518563ffffffff1660e01b8152600401611aeb94939291906136ff565b602060405180830381600087803b158015611b0557600080fd5b505af1925050508015611b3657506040513d601f19601f82011682018060405250810190611b339190613760565b60015b611bb9573d8060008114611b66576040519150601f19603f3d011682016040523d82523d6000602084013e611b6b565b606091505b50600081511415611bb1576040517f08c379a0000000000000000000000000000000000000000000000000000000008152600401611ba89061365b565b60405180910390fd5b805181602001fd5b63150b7a0260e01b7bffffffffffffffffffffffffffffffffffffffffffffffffffffffff1916817bffffffffffffffffffffffffffffffffffffffffffffffffffffffff191614915050611c0e565b600190505b949350505050565b600080600090507a184f03e93ff9f4daa797ed6e38ed64bf6a1f0100000000000000008310611c74577a184f03e93ff9f4daa797ed6e38ed64bf6a1f0100000000000000008381611c6a57611c6961367b565b5b0492506040810190505b6d04ee2d6d415b85acef81000000008310611cb1576d04ee2d6d415b85acef81000000008381611ca757611ca661367b565b5b0492506020810190505b662386f26fc100008310611ce057662386f26fc100008381611cd657611cd561367b565b5b0492506010810190505b6305f5e1008310611d09576305f5e1008381611cff57611cfe61367b565b5b0492506008810190505b6127108310611d2e576127108381611d2457611d2361367b565b5b0492506004810190505b60648310611d515760648381611d4757611d4661367b565b5b0492506002810190505b600a8310611d60576001810190505b80915050919050565b60007f01ffc9a7000000000000000000000000000000000000000000000000000000007bffffffffffffffffffffffffffffffffffffffffffffffffffffffff1916827bffffffffffffffffffffffffffffffffffffffffffffffffffffffff1916149050919050565b600073ffffffffffffffffffffffffffffffffffffffff168273ffffffffffffffffffffffffffffffffffffffff161415611e43576040517f08c379a0000000000000000000000000000000000000000000000000000000008152600401611e3a906137d9565b60405180910390fd5b611e4c816117be565b15611e8c576040517f08c379a0000000000000000000000000000000000000000000000000000000008152600401611e8390613845565b60405180910390fd5b611e9a600083836001611a14565b611ea3816117be565b15611ee3576040517f08c379a0000000000000000000000000000000000000000000000000000000008152600401611eda90613845565b60405180910390fd5b6001600360008473ffffffffffffffffffffffffffffffffffffffff1673ffffffffffffffffffffffffffffffffffffffff16815260200190815260200160002060008282540192505081905550816002600083815260200190815260200160002060006101000a81548173ffffffffffffffffffffffffffffffffffffffff021916908373ffffffffffffffffffffffffffffffffffffffff160217905550808273ffffffffffffffffffffffffffffffffffffffff16600073ffffffffffffffffffffffffffffffffffffffff167fddf252ad1be2c89b69c2b068fc378daa952ba7f163c4a11628f55a4df523b3ef60405160405180910390a4611fed600083836001611a26565b5050565b611ffd848484846122c2565b6001811115612041576040517f08c379a0000000000000000000000000000000000000000000000000000000008152600401612038906138d7565b60405180910390fd5b6000829050600073ffffffffffffffffffffffffffffffffffffffff168573ffffffffffffffffffffffffffffffffffffffff16141561208957612084816123e8565b6120c8565b8373ffffffffffffffffffffffffffffffffffffffff168573ffffffffffffffffffffffffffffffffffffffff16146120c7576120c68582612431565b5b5b600073ffffffffffffffffffffffffffffffffffffffff168473ffffffffffffffffffffffffffffffffffffffff16141561210b576121068161259e565b61214a565b8473ffffffffffffffffffffffffffffffffffffffff168473ffffffffffffffffffffffffffffffffffffffff161461214957612148848261266f565b5b5b5050505050565b600061215c826109f5565b905061216c816000846001611a14565b612175826109f5565b90506004600083815260200190815260200160002060006101000a81549073ffffffffffffffffffffffffffffffffffffffff02191690556001600360008373ffffffffffffffffffffffffffffffffffffffff1673ffffffffffffffffffffffffffffffffffffffff168152602001908152602001600020600082825403925050819055506002600083815260200190815260200160002060006101000a81549073ffffffffffffffffffffffffffffffffffffffff021916905581600073ffffffffffffffffffffffffffffffffffffffff168273ffffffffffffffffffffffffffffffffffffffff167fddf252ad1be2c89b69c2b068fc378daa952ba7f163c4a11628f55a4df523b3ef60405160405180910390a461229b816000846001611a26565b5050565b6000808273ffffffffffffffffffffffffffffffffffffffff163b119050919050565b60018111156123e257600073ffffffffffffffffffffffffffffffffffffffff168473ffffffffffffffffffffffffffffffffffffffff16146123565780600360008673ffffffffffffffffffffffffffffffffffffffff1673ffffffffffffffffffffffffffffffffffffffff168152602001908152602001600020600082825461234e91906138f7565b925050819055505b600073ffffffffffffffffffffffffffffffffffffffff168373ffffffffffffffffffffffffffffffffffffffff16146123e15780600360008573ffffffffffffffffffffffffffffffffffffffff1673ffffffffffffffffffffffffffffffffffffffff16815260200190815260200160002060008282546123d9919061392b565b925050819055505b5b50505050565b600980549050600a600083815260200190815260200160002081905550600981908060018154018082558091505060019003906000526020600020016000909190919091505550565b6000600161243e84610b0a565b61244891906138f7565b905060006008600084815260200190815260200160002054905081811461252d576000600760008673ffffffffffffffffffffffffffffffffffffffff1673ffffffffffffffffffffffffffffffffffffffff168152602001908152602001600020600084815260200190815260200160002054905080600760008773ffffffffffffffffffffffffffffffffffffffff1673ffffffffffffffffffffffffffffffffffffffff168152602001908152602001600020600084815260200190815260200160002081905550816008600083815260200190815260200160002081905550505b6008600084815260200190815260200160002060009055600760008573ffffffffffffffffffffffffffffffffffffffff1673ffffffffffffffffffffffffffffffffffffffff16815260200190815260200160002060008381526020019081526020016000206000905550505050565b600060016009805490506125b291906138f7565b90506000600a60008481526020019081526020016000205490506000600983815481106125e2576125e16130c1565b5b906000526020600020015490508060098381548110612604576126036130c1565b5b906000526020600020018190555081600a600083815260200190815260200160002081905550600a600085815260200190815260200160002060009055600980548061265357612652613981565b5b6001900381819060005260206000200160009055905550505050565b600061267a83610b0a565b905081600760008573ffffffffffffffffffffffffffffffffffffffff1673ffffffffffffffffffffffffffffffffffffffff168152602001908152602001600020600083815260200190815260200160002081905550806008600084815260200190815260200160002081905550505050565b5080546126fa90612d3d565b6000825580601f1061270c575061272b565b601f01602090049060005260206000209081019061272a919061272e565b5b50565b5b8082111561274757600081600090555060010161272f565b5090565b6000604051905090565b600080fd5b600080fd5b60007fffffffff0000000000000000000000000000000000000000000000000000000082169050919050565b6127948161275f565b811461279f57600080fd5b50565b6000813590506127b18161278b565b92915050565b6000602082840312156127cd576127cc612755565b5b60006127db848285016127a2565b91505092915050565b60008115159050919050565b6127f9816127e4565b82525050565b600060208201905061281460008301846127f0565b92915050565b600081519050919050565b600082825260208201905092915050565b60005b83811015612854578082015181840152602081019050612839565b83811115612863576000848401525b50505050565b6000601f19601f8301169050919050565b60006128858261281a565b61288f8185612825565b935061289f818560208601612836565b6128a881612869565b840191505092915050565b600060208201905081810360008301526128cd818461287a565b905092915050565b6000819050919050565b6128e8816128d5565b81146128f357600080fd5b50565b600081359050612905816128df565b92915050565b60006020828403121561292157612920612755565b5b600061292f848285016128f6565b91505092915050565b600073ffffffffffffffffffffffffffffffffffffffff82169050919050565b600061296382612938565b9050919050565b61297381612958565b82525050565b600060208201905061298e600083018461296a565b92915050565b61299d81612958565b81146129a857600080fd5b50565b6000813590506129ba81612994565b92915050565b600080604083850312156129d7576129d6612755565b5b60006129e5858286016129ab565b92505060206129f6858286016128f6565b9150509250929050565b612a09816128d5565b82525050565b6000602082019050612a246000830184612a00565b92915050565b600080600060608486031215612a4357612a42612755565b5b6000612a51868287016129ab565b9350506020612a62868287016129ab565b9250506040612a73868287016128f6565b9150509250925092565b600060208284031215612a9357612a92612755565b5b6000612aa1848285016129ab565b91505092915050565b612ab3816127e4565b8114612abe57600080fd5b50565b600081359050612ad081612aaa565b92915050565b60008060408385031215612aed57612aec612755565b5b6000612afb858286016129ab565b9250506020612b0c85828601612ac1565b9150509250929050565b600080fd5b600080fd5b7f4e487b7100000000000000000000000000000000000000000000000000000000600052604160045260246000fd5b612b5882612869565b810181811067ffffffffffffffff82111715612b7757612b76612b20565b5b80604052505050565b6000612b8a61274b565b9050612b968282612b4f565b919050565b600067ffffffffffffffff821115612bb657612bb5612b20565b5b612bbf82612869565b9050602081019050919050565b82818337600083830152505050565b6000612bee612be984612b9b565b612b80565b905082815260208101848484011115612c0a57612c09612b1b565b5b612c15848285612bcc565b509392505050565b600082601f830112612c3257612c31612b16565b5b8135612c42848260208601612bdb565b91505092915050565b60008060008060808587031215612c6557612c64612755565b5b6000612c73878288016129ab565b9450506020612c84878288016129ab565b9350506040612c95878288016128f6565b925050606085013567ffffffffffffffff811115612cb657612cb561275a565b5b612cc287828801612c1d565b91505092959194509250565b60008060408385031215612ce557612ce4612755565b5b6000612cf3858286016129ab565b9250506020612d04858286016129ab565b9150509250929050565b7f4e487b7100000000000000000000000000000000000000000000000000000000600052602260045260246000fd5b60006002820490506001821680612d5557607f821691505b60208210811415612d6957612d68612d0e565b5b50919050565b7f4552433732313a20617070726f76616c20746f2063757272656e74206f776e6560008201527f7200000000000000000000000000000000000000000000000000000000000000602082015250565b6000612dcb602183612825565b9150612dd682612d6f565b604082019050919050565b60006020820190508181036000830152612dfa81612dbe565b9050919050565b7f4552433732313a20617070726f76652063616c6c6572206973206e6f7420746f60008201527f6b656e206f776e6572206f7220617070726f76656420666f7220616c6c000000602082015250565b6000612e5d603d83612825565b9150612e6882612e01565b604082019050919050565b60006020820190508181036000830152612e8c81612e50565b9050919050565b7f4e487b7100000000000000000000000000000000000000000000000000000000600052601160045260246000fd5b6000612ecd826128d5565b91507fffffffffffffffffffffffffffffffffffffffffffffffffffffffffffffffff821415612f0057612eff612e93565b5b600182019050919050565b7f4552433732313a2063616c6c6572206973206e6f7420746f6b656e206f776e6560008201527f72206f7220617070726f76656400000000000000000000000000000000000000602082015250565b6000612f67602d83612825565b9150612f7282612f0b565b604082019050919050565b60006020820190508181036000830152612f9681612f5a565b9050919050565b7f455243373231456e756d657261626c653a206f776e657220696e646578206f7560008201527f74206f6620626f756e6473000000000000000000000000000000000000000000602082015250565b6000612ff9602b83612825565b915061300482612f9d565b604082019050919050565b6000602082019050818103600083015261302881612fec565b9050919050565b7f455243373231456e756d657261626c653a20676c6f62616c20696e646578206f60008201527f7574206f6620626f756e64730000000000000000000000000000000000000000602082015250565b600061308b602c83612825565b91506130968261302f565b604082019050919050565b600060208201905081810360008301526130ba8161307e565b9050919050565b7f4e487b7100000000000000000000000000000000000000000000000000000000600052603260045260246000fd5b7f4552433732313a20696e76616c696420746f6b656e2049440000000000000000600082015250565b6000613126601883612825565b9150613131826130f0565b602082019050919050565b6000602082019050818103600083015261315581613119565b9050919050565b7f4552433732313a2061646472657373207a65726f206973206e6f74206120766160008201527f6c6964206f776e65720000000000000000000000000000000000000000000000602082015250565b60006131b8602983612825565b91506131c38261315c565b604082019050919050565b600060208201905081810360008301526131e7816131ab565b9050919050565b7f4e4654206973206e6f742065786973742e000000000000000000000000000000600082015250565b6000613224601183612825565b915061322f826131ee565b602082019050919050565b6000602082019050818103600083015261325381613217565b9050919050565b600081905092915050565b60008190508160005260206000209050919050565b6000815461328781612d3d565b613291818661325a565b945060018216600081146132ac57600181146132bd576132f0565b60ff198316865281860193506132f0565b6132c685613265565b60005b838110156132e8578154818901526001820191506020810190506132c9565b838801955050505b50505092915050565b60006133048261281a565b61330e818561325a565b935061331e818560208601612836565b80840191505092915050565b6000613336828661327a565b915061334282856132f9565b915061334e828461327a565b9150819050949350505050565b7f4f776e61626c653a206e6577206f776e657220697320746865207a65726f206160008201527f6464726573730000000000000000000000000000000000000000000000000000602082015250565b60006133b7602683612825565b91506133c28261335b565b604082019050919050565b600060208201905081810360008301526133e6816133aa565b9050919050565b7f4552433732313a207472616e736665722066726f6d20696e636f72726563742060008201527f6f776e6572000000000000000000000000000000000000000000000000000000602082015250565b6000613449602583612825565b9150613454826133ed565b604082019050919050565b600060208201905081810360008301526134788161343c565b9050919050565b7f4552433732313a207472616e7366657220746f20746865207a65726f2061646460008201527f7265737300000000000000000000000000000000000000000000000000000000602082015250565b60006134db602483612825565b91506134e68261347f565b604082019050919050565b6000602082019050818103600083015261350a816134ce565b9050919050565b7f4f776e61626c653a2063616c6c6572206973206e6f7420746865206f776e6572600082015250565b6000613547602083612825565b915061355282613511565b602082019050919050565b600060208201905081810360008301526135768161353a565b9050919050565b7f4552433732313a20617070726f766520746f2063616c6c657200000000000000600082015250565b60006135b3601983612825565b91506135be8261357d565b602082019050919050565b600060208201905081810360008301526135e2816135a6565b9050919050565b7f4552433732313a207472616e7366657220746f206e6f6e20455243373231526560008201527f63656976657220696d706c656d656e7465720000000000000000000000000000602082015250565b6000613645603283612825565b9150613650826135e9565b604082019050919050565b6000602082019050818103600083015261367481613638565b9050919050565b7f4e487b7100000000000000000000000000000000000000000000000000000000600052601260045260246000fd5b600081519050919050565b600082825260208201905092915050565b60006136d1826136aa565b6136db81856136b5565b93506136eb818560208601612836565b6136f481612869565b840191505092915050565b6000608082019050613714600083018761296a565b613721602083018661296a565b61372e6040830185612a00565b818103606083015261374081846136c6565b905095945050505050565b60008151905061375a8161278b565b92915050565b60006020828403121561377657613775612755565b5b60006137848482850161374b565b91505092915050565b7f4552433732313a206d696e7420746f20746865207a65726f2061646472657373600082015250565b60006137c3602083612825565b91506137ce8261378d565b602082019050919050565b600060208201905081810360008301526137f2816137b6565b9050919050565b7f4552433732313a20746f6b656e20616c7265616479206d696e74656400000000600082015250565b600061382f601c83612825565b915061383a826137f9565b602082019050919050565b6000602082019050818103600083015261385e81613822565b9050919050565b7f455243373231456e756d657261626c653a20636f6e736563757469766520747260008201527f616e7366657273206e6f7420737570706f727465640000000000000000000000602082015250565b60006138c1603583612825565b91506138cc82613865565b604082019050919050565b600060208201905081810360008301526138f0816138b4565b9050919050565b6000613902826128d5565b915061390d836128d5565b9250828210156139205761391f612e93565b5b828203905092915050565b6000613936826128d5565b9150613941836128d5565b9250827fffffffffffffffffffffffffffffffffffffffffffffffffffffffffffffffff0382111561397657613975612e93565b5b828201905092915050565b7f4e487b7100000000000000000000000000000000000000000000000000000000600052603160045260246000fdfea264697066735822122036fec470d4df5f8414f718ffa3c5b7c900c6ab5da6b1366914bd8d2397865d7264736f6c63430008090033697066733a2f2f516d5a6b56796a7178375437775338424a3350614a484d547165425544655261366679486557653756376862734e2f",
  "linkReferences": {},
  "deployedLinkReferences": {}
}